S023000030375F42696E617279436F756E7465725F57495448534849454C442E73726563A2
S11300000C9434000C9446000C9446000C94460066
S11300100C9446000C9446000C9446000C94460044
S11300200C9446000C9446000C9446000C94460034
S11300300C9446000C9446000C9446000C94460024
S11300400C9446000C9446000C9446000C94460014
S11300500C9446000C9446000C9446000C94460004
S11300600C9446000C94460011241FBECFEFD8E038
S1130070DEBFCDBF21E0A0E0B1E001C01D92A230FF
S1130080B207E1F70E945C000C9477000C94000026
S1130090109201011092000187B18E6187B984B179
S11300A08D7F84B985B1826085B98AB18D7F8AB923
S11300B08BB182608BB908950E94480049990FC0A2
S11300C0809100019091010101968F70992790937E
S11300D0010180930001880F88B9499BFECF1999CB
S11300E0EDCF109201011092000118B8E7CFF894F7
S10500F0FFCF3C
S9030000FC
