:100000000C9434000C9446000C9446000C9446006A
:100010000C9446000C9446000C9446000C94460048
:100020000C9446000C9446000C9446000C94460038
:100030000C9446000C9446000C9446000C94460028
:100040000C9446000C9446000C9446000C94460018
:100050000C9446000C9446000C9446000C94460008
:100060000C9446000C94460011241FBECFEFD8E03C
:10007000DEBFCDBF21E0A0E0B1E001C01D92A23003
:10008000B207E1F70E945C000C9481000C94000020
:10009000109201011092000187B18E6187B984B17D
:1000A0008D7F84B985B1826085B98AB18D7F8AB927
:1000B0008BB182608BB908950E944800499919C09C
:1000C000809100019091010101968F709927909382
:1000D000010180930001880F88B909C02FEF81EEDC
:1000E00094E0215080409040E1F700C00000499B1F
:1000F000F5CF1999E3CF109201011092000118B8C1
:06010000DDCFF894FFCFF3
:00000001FF
