:100000000C9434000C9446000C9446000C9446006A
:100010000C9446000C9446000C9446000C94460048
:100020000C9446000C9446000C9446000C94460038
:100030000C9446000C9446000C9446000C94460028
:100040000C9446000C9446000C9446000C94460018
:100050000C9446000C9446000C9446000C94460008
:100060000C9446000C94460011241FBECFEFD8E03C
:10007000DEBFCDBF21E0A0E0B1E001C01D92A23003
:10008000B207E1F70E9458000C947F000C94000026
:1000900087B18E6187B988B1817E88B985B1826068
:1000A00085B98AB18D7F8AB98BB182608BB9089589
:1000B0000E94480049991CC0809100019091010163
:1000C0000196909301018093000188B118B848B15E
:1000D00020910001309101012F70332781E090E0E1
:1000E00002C0880F991F2A95E2F7842B88B9E2CFC6
:1000F0001999E0CF1092010110920001DBCFF89422
:02010000FFCF2F
:00000001FF
