:100000000C9434000C9446000C9446000C9446006A
:100010000C9446000C9446000C9446000C94460048
:100020000C9446000C9446000C9446000C94460038
:100030000C9446000C9446000C9446000C94460028
:100040000C9446000C9446000C9446000C94460018
:100050000C9446000C9446000C9446000C94460008
:100060000C9446000C94460011241FBECFEFD8E03C
:10007000DEBFCDBF21E0A0E0B1E001C01D92A23003
:10008000B207E1F70E94D6000C94F3000C94000034
:1000900084B1816084B987B18E6387B98AB1816F79
:1000A0008AB988B1826088B98AB18D7F8AB98BB1EB
:1000B00082608BB908958091000190910101843F85
:1000C00021E0920709F444C080F4883C910559F17D
:1000D00020F48436910501F108958C3221E09207D5
:1000E00049F18039914069F10895803223E0920707
:1000F00009F443C040F4883522E0920781F18C3B3B
:100100009240A1F10895843823E09207E9F1883EF6
:10011000934009F440C0089588B18D7F88B988B1B3
:10012000846088B9089588B18B7F88B988B1886068
:1001300088B9089588B1877F88B988B1806188B906
:10014000089588B18F7E88B988B1806288B9089592
:1001500088B18F7D88B98BB180618BB908958BB1DF
:100160008F7E8BB98BB180628BB908958BB18F7DF7
:100170008BB98BB180648BB908958BB18F7B8BB9B0
:100180008BB180688BB908958BB18F778BB985B1AE
:10019000816085B9089585B18E7F85B988B1826007
:1001A00088B9109201011092000108950E94480040
:1001B000499BFECF80910001909101018C599F4F86
:1001C00090930101809300010E945B0009C02FEF12
:1001D00081EE94E0215080409040E1F700C00000A3
:0A01E0004999F5CFE5CFF894FFCF61
:00000001FF
