:100000000C9434000C9446000C9446000C9446006A
:100010000C9446000C9446000C9446000C94460048
:100020000C9446000C9446000C9446000C94460038
:100030000C9446000C9446000C9446000C94460028
:100040000C9446000C9446000C9446000C94460018
:100050000C9446000C9446000C9446000C94460008
:100060000C9446000C94460011241FBECFEFD8E03C
:10007000DEBFCDBF21E0A0E0B1E001C01D92A23003
:10008000B207E1F70E94DA000C94E3000C94000040
:1000900087B18E6387B98AB1816F8AB988B182606E
:1000A00088B98AB18D7F8AB98BB182608BB9089586
:1000B0008091000190910101CC9690930101809371
:1000C000000180910001909101018C3221E09207A2
:1000D00009F442C070F48837910549F118F4CC97BF
:1000E000F9F00895843B910549F1803F910569F14C
:1000F0000895803E21E0920709F443C040F4883619
:1001000021E0920781F1843A9140A1F108958C3168
:1001100022E09207E9F18835924009F440C0089541
:1001200088B18D7F88B988B1846088B9089588B115
:100130008B7F88B988B1886088B9089588B1877F36
:1001400088B988B1806188B9089588B18F7E88B9EF
:1001500088B1806288B9089588B18F7D88B98BB1E4
:1001600080618BB908958BB18F7E8BB98BB1806222
:100170008BB908958BB18F7D8BB98BB180648BB9AE
:1001800008958BB18F7B8BB98BB180688BB9089543
:100190008BB18F778BB98BB181608BB908958BB19F
:1001A0008E7F8BB988B1826088B91092010110925C
:1001B000000108950E944800499BFECF0E9458000C
:0A01C0004999FECFF9CFF894FFCF64
:00000001FF
