:100000000C9434000C943E000C943E000C9456006A
:100010000C943E000C9440000C943E000C943E0066
:100020000C943E000C943E000C943E000C943E0058
:100030000C943E000C943E000C943E000C943E0048
:100040000C943E000C943E000C943E000C943E0038
:100050000C943E000C943E000C943E000C943E0028
:100060000C943E000C943E0011241FBECFEFD8E04C
:10007000DEBFCDBF0E949A000C949D000C9400003E
:100080001F920F920FB60F9211248F939F9398B1E6
:100090008EE3892788B99BB180E389278BB99F912B
:1000A0008F910F900FBE0F901F9018951F920F9277
:1000B0000FB60F9211248F939F939BB181EC8927E8
:1000C0008BB995B181E0892785B99F918F910F9068
:1000D0000FBE0F901F90189584B184B987B18E63BD
:1000E00087B98AB1816F8AB98BB182608BB985B1CA
:1000F000826085B988B18E6388B98BB180638BB912
:100100008BB1816C8BB985B1816085B97894E8E653
:10011000F0E0808184608083808181608083EBE671
:10012000F0E0808182608083EDE6F0E08081826093
:0E013000808308950E946C00FFCFF894FFCFEB
:00000001FF
