S01600004C6162335F4175666761626531612E7372656330
S11300000C9434000C9451000C9451000C94510045
S11300100C9451000C9451000C9451000C94510018
S11300200C9451000C9451000C9451000C94510008
S11300300C9451000C9451000C94A8010C945100A0
S11300400C9451000C9451000C9451000C945100E8
S11300500C9451000C9451000C9451000C945100D8
S11300600C9451000C94510011241FBECFEFD8E022
S1130070DEBFCDBF11E0A0E0B1E0E8E1F4E002C0F2
S113008005900D92AE35B107D9F721E0AEE5B1E0A8
S113009001C01D92A036B207E1F70E9485010C94BD
S11300A00A020C9400007894EEE6F0E0808182600D
S11300B080838BE987BD84B5826084BD84B58E7FDF
S11300C084BD85B5877F85BD85B5856085BD85B5CE
S11300D08D7F85BD8AB18C608AB98AB18D7F8AB9DA
S11300E084B18D7F84B98BB182608BB985B1826014
S11300F085B9089584B18C6284B980E58CBD089576
S113010095B19B7F95B98EBD0DB407FEFDCF85B12A
S1130110846085B908958F929F92AF92BF92EF92B7
S1130120FF920F931F93CF93DF937C018B01812C5C
S1130130912C540116C08BB184608BB9E401CC0FAF
S1130140DD1FCE0DDF1D89810E94800088810E9401
S113015080008BB18B7F8BB98FEF881A980AA80A1D
S1130160B80AC801A0E0B0E088169906AA06BB0642
S113017010F3DF91CF911F910F91FF90EF90BF90FB
S1130180AF909F908F900895CF93DF93CDB7DEB754
S1130190C255D1090FB6F894DEBF0FBECDBF82E5BC
S11301A0ECE0F1E0DE01119601900D928A95E1F701
S11301B02FEF85EA9EE0215080409040E1F700C097
S11301C000008BB11BB82FE789EA93E021508040EF
S11301D09040E1F700C0000085B1846085B92FE745
S11301E089EA93E0215080409040E1F700C000008C
S11301F08BB184608BB92FE789EA93E0215080406A
S11302009040E1F700C000008BB188608BB92FE704
S113021089EA93E0215080409040E1F700C000005B
S113022062E070E0CE0101960E948B002FE789EA1C
S113023093E0215080409040E1F700C000006AE064
S113024070E0CE0105960E948B002FE789EA93E0C7
S1130250215080409040E1F700C0000067E170E069
S1130260CE0149960E948B002FE789EA93E0215042
S113027080409040E1F700C0000066E070E0CE01ED
S1130280895B9F4F0E948B00CE5ADF4F0FB6F894C4
S1130290DEBF0FBECDBFDF91CF910895CF93C82F9E
S11302A0892F0E9480008C2F0E948000CF91089596
S11302B00F931F93CF93DF938C01C0E0D0E004C071
S11302C0C8010E944E012196C13C8AE5D807C0F3BB
S11302D0DF91CF911F910F9108950F931F93CF93A7
S11302E0DF938B0166E070E00E948B00C0E0D0E0F9
S11302F004C0C8010E944E012196C436D105CCF336
S1130300DF91CF911F910F9108950E9453000E9495
S11303107A000E94C40080EE9FEF0E94580160E0C2
S113032078EF80E091E00E946D01499B07C08091C5
S11303305F01811103C081E080935F01199BF5CFB8
S113034080915E018111F1CF81E080935E01EDCF58
S11303501F920F920FB60F9211242F933F934F9336
S11303605F936F937F938F939F93AF93BF93CF9339
S1130370DF93EF93FF9380915F018130D1F449992A
S113038018C0C0E0D1E060EE7FEFCE010E946D01A5
S11303908C819D8101969D838C838E819F810196A2
S11303A09F838E8360E078EFCE010E946D011092EE
S11303B05F0180915E018130D1F4199918C0C0E0C9
S11303C0D1E060EE7FEFCE010E946D018C819D81B2
S11303D001979D838C838E819F8101979F838E8358
S11303E060E078EFCE010E946D0110925E01FF91F2
S11303F0EF91DF91CF91BF91AF919F918F917F91B9
S11304006F915F914F913F912F910F900FBE0F907D
S10B04101F901895F894FFCF2A
S113041808EF00183E12471554135D16FDFDFDFD47
S113042800EF04EE041BFEFEFEFE90EF044A3F7F3D
S113043804EE064390EF83090008AF0B000A000599
S11304480006000700EF0CEE90EF8000B0EF0249C1
S113045800EF017F81E102E276E283E1018090EF1F
S1110468000008EF0018001283150013AF16F1
S9030000FC
