:100000000C9434000C9449000C9449000C94490061
:100010000C9449000C9449000C9449000C9449003C
:100020000C9449000C9449000C9449000C9449002C
:100030000C9449000C9449000C9449000C9449001C
:100040000C9449000C9449000C9449000C9449000C
:100050000C9449000C9449000C9449000C944900FC
:100060000C9449000C94490011241FBECFEFD8E036
:10007000DEBFCDBF11E0A0E0B1E0E2E3F2E002C0FC
:1000800005900D92A634B107D9F70E940F010C9488
:1000900017010C94000084B18C6284B980E58CBD9A
:1000A000089595B19B7F95B98EBD0DB407FEFDCF28
:1000B00085B1846085B908958F929F92AF92BF9267
:1000C000EF92FF920F931F93CF93DF937C018B01ED
:1000D000812C912C540116C08BB184608BB9E40142
:1000E000CC0FDD1FCE0DDF1D89810E94510088815C
:1000F0000E9451008BB18B7F8BB98FEF881A980AC1
:10010000A80AB80AC801A0E0B0E088169906AA06B5
:10011000BB0610F3DF91CF911F910F91FF90EF90ED
:10012000BF90AF909F908F900895CF93DF93CDB7FE
:10013000DEB7C654D1090FB6F894DEBF0FBECDBFEF
:1001400086E4E0E0F1E0DE01119601900D928A95DF
:10015000E1F72FEF85EA9EE0215080409040E1F7E3
:1001600000C000008BB11BB82FE789EA93E0215053
:1001700080409040E1F700C0000085B1846085B9FF
:100180002FE789EA93E0215080409040E1F700C0DA
:1001900000008BB184608BB92FE789EA93E021508E
:1001A00080409040E1F700C000008BB188608BB9BF
:1001B0002FE789EA93E0215080409040E1F700C0AA
:1001C000000062E070E0CE0101960E945C002FE723
:1001D00089EA93E0215080409040E1F700C00000A0
:1001E0006AE070E0CE0105960E945C002FE789EA84
:1001F00093E0215080409040E1F700C0000067E1AB
:1002000070E0CE0149960E945C00CA5BDF4F0FB6DA
:10021000F894DEBF0FBECDBFDF91CF9108958AB1B4
:100220008C608AB90E944B000E949500FFCFF89421
:02023000FFCFFE
:10023200FDFDFDFD00EF04EE041BFEFEFEFE90EF51
:10024200044A3F7F04EE064390EF83090008AF0B98
:10025200000A00050006000700EF0CEE90EF800098
:10026200B0EF024900EF017F81E102E276E283E131
:06027200018090EF000086
:00000001FF
