:100000000C9434000C943E000C943E000C943E0082
:100010000C943E000C943E000C943E000C943E0068
:100020000C943E000C943E000C943E000C943E0058
:100030000C943E000C943E000C943E000C943E0048
:100040000C943E000C943E000C943E000C943E0038
:100050000C943E000C943E000C943E000C943E0028
:100060000C943E000C943E0011241FBECFEFD8E04C
:10007000DEBFCDBF0E9457000C945C000C940000C2
:1000800087B1826087B988B1826088B98AB18D7F73
:100090008AB98BB182608BB90895499904C088B13F
:1000A000826088B9089588B18D7F88B908950E94CB
:0C00B00040000E944D00FDCFF894FFCFEF
:00000001FF
