:100000000C9434000C9446000C9446000C9446006A
:100010000C9446000C9446000C9446000C94460048
:100020000C9446000C9446000C9446000C94460038
:100030000C9446000C9446000C9446000C94460028
:100040000C9446000C9446000C9446000C94460018
:100050000C9446000C9446000C9446000C94460008
:100060000C9446000C94460011241FBECFEFD8E03C
:10007000DEBFCDBF21E0A0E0B1E001C01D92A23003
:10008000B207E1F70E9477000C9489000C940000FD
:1000900084B1806284B984B18F7784B985B1806876
:1000A00085B9089520E030E01AC085B1806285B935
:1000B0004FE382E49FE0415080409040E1F700C070
:1000C000000085B18F7D85B94FE382E49FE0415008
:1000D00080409040E1F700C000002F5F3F4F8091CB
:1000E00000019091010182179307F8F608950E948C
:1000F00048001F99FECF80910001909101019C0161
:100100002F5F3F4F30930101209300010E94520066
:06011000F0CFF894FFCFD0
:00000001FF
