:100000000C9434000C9451000C9451000C94510049
:100010000C9451000C9451000C9451000C9451001C
:100020000C9451000C9451000C9451000C9451000C
:100030000C9451000C9451000C9477000C945100D6
:100040000C9451000C9451000C9451000C945100EC
:100050000C9451000C9451000C9451000C945100DC
:100060000C9451000C94510011241FBECFEFD8E026
:10007000DEBFCDBF11E0A0E0B1E0EEE1F2E002C0F2
:1000800005900D92A030B107D9F721E0A0E0B1E0D2
:1000900001C01D92A230B207E1F70E940A010C9440
:1000A0000D010C94000084B1816084B987B18E6326
:1000B00087B98AB1816F8AB988B1826088B978942A
:1000C000EEE6F0E08081826080838BE987BD84B5B5
:1000D000826084BD84B58E7F84BD85B5877F85BDF4
:1000E00085B5856085BD85B58D7F85BD08951F92D9
:1000F0000F920FB60F9211242F938F939F9380919D
:1001000000019091010101969093010180930001FB
:100110008091000190910101843F21E0920709F450
:1001200044C080F4883C910559F120F4843691054F
:1001300001F168C08C3221E0920749F18039914089
:1001400069F160C0803223E0920709F443C040F4B3
:10015000883522E0920781F18C3B9240A1F152C098
:10016000843823E09207E9F1883E934009F440C0C7
:1001700049C088B18D7F88B988B1846088B942C090
:1001800088B18B7F88B988B1886088B93BC088B155
:10019000877F88B988B1806188B934C088B18F7E83
:1001A00088B988B1806288B92DC088B18F7D88B93F
:1001B0008BB180618BB926C08BB18F7E8BB98BB12F
:1001C00080628BB91FC08BB18F7D8BB98BB180647E
:1001D0008BB918C08BB18F7B8BB98BB180688BB911
:1001E00011C08BB18F778BB985B1816085B90AC099
:1001F00085B18E7F85B988B1826088B9109201017E
:10020000109200019F918F912F910F900FBE0F9030
:0E0210001F9018950E945300FFCFF894FFCF67
:00000001FF
