:100000000C9434000C9451000C9451000C94510049
:100010000C9451000C9451000C9451000C9451001C
:100020000C9451000C9451000C9451000C9451000C
:100030000C9451000C9451000C9474000C945100D9
:100040000C9451000C9451000C9451000C945100EC
:100050000C9451000C9451000C9451000C945100DC
:100060000C9451000C94510011241FBECFEFD8E026
:10007000DEBFCDBF11E0A0E0B1E0E4E1F2E002C0FC
:1000800005900D92A030B107D9F721E0A0E0B1E0D2
:1000900001C01D92A230B207E1F70E9405010C9445
:1000A00008010C94000087B18E6387B98AB1816F13
:1000B0008AB988B1826088B97894EEE6F0E08081F0
:1000C000826080838BE987BD84B5826084BD84B5FE
:1000D0008E7F84BD85B5877F85BD85B5856085BDEF
:1000E00085B58D7F85BD08951F920F920FB60F9233
:1000F00011242F938F939F93809100019091010180
:1001000001969093010180930001809100019091EC
:1001100001018C3221E0920709F442C070F4883763
:10012000910549F118F4CC97F9F067C0843B91052B
:1001300049F1803F910569F160C0803E21E092075E
:1001400009F443C040F4883621E0920781F1843AF3
:100150009140A1F152C08C3122E09207E9F188353B
:10016000924009F440C049C088B18D7F88B988B1F8
:10017000846088B942C088B18B7F88B988B18860B3
:1001800088B93BC088B1877F88B988B1806188B958
:1001900034C088B18F7E88B988B1806288B92DC09B
:1001A00088B18F7D88B98BB180618BB926C08BB146
:1001B0008F7E8BB98BB180628BB91FC08BB18F7D65
:1001C0008BB98BB180648BB918C08BB18F7B8BB925
:1001D0008BB180688BB911C08BB18F778BB98BB124
:1001E00081608BB90AC08BB18E7F8BB988B1826078
:1001F00088B910920101109200019F918F912F9167
:100200000F900FBE0F901F9018950E945300FFCFC4
:04021000F894FFCF90
:00000001FF
