:100000000C9434000C943E000C943E000C94400080
:100010000C943E000C943E000C943E000C943E0068
:100020000C943E000C943E000C943E000C943E0058
:100030000C943E000C943E000C943E000C943E0048
:100040000C943E000C943E000C943E000C943E0038
:100050000C943E000C943E000C943E000C943E0028
:100060000C943E000C943E0011241FBECFEFD8E04C
:10007000DEBFCDBF0E9467000C946A000C940000A4
:100080001F920F920FB60F9211248F9383B180624B
:1000900083B98F910F900FBE0F901F90189584B168
:1000A0008F7784B985B1806885B984B1806284B95D
:1000B00085B1806285B97894E8E6F0E0808181605E
:1000C0008083EBE6F0E080818068808308950E9461
:0800D0004F00FFCFF894FFCFB1
:00000001FF
