S023000030375F42696E617279436F756E7465725F57495448534849454C442E73726563A2
S11300000C9434000C9446000C9446000C94460066
S11300100C9446000C9446000C9446000C94460044
S11300200C9446000C9446000C9446000C94460034
S11300300C9446000C9446000C9446000C94460024
S11300400C9446000C9446000C9446000C94460014
S11300500C9446000C9446000C9446000C94460004
S11300600C9446000C94460011241FBECFEFD8E038
S1130070DEBFCDBF21E0A0E0B1E001C01D92A230FF
S1130080B207E1F70E9476000C948F000C940000F4
S113009084B18E6184B9299A5198599A08958091AE
S11300A000019091010121E030E0E1E0F0E0181658
S11300B01906DCF480FF09C068B1AF01022E01C04B
S11300C0440F0A94EAF7462B0AC058B1BF01022E26
S11300D001C0660F0A94EAF7462F4095452348B9B4
S11300E0959587952F5F3F4FE2CF08950E94480072
S11300F0499B0EC0809100019091010101968F707F
S1130100992790930101809300010E944F00F0CF42
S1130110199BEECF1092010110920001E9CFF894DF
S1050120FFCF0B
S9030000FC
