S01800004C45444F6E427574746F6E50726573732E73726563F1
S11300000C9434000C943E000C943E000C943E007E
S11300100C943E000C943E000C943E000C943E0064
S11300200C943E000C943E000C943E000C943E0054
S11300300C943E000C943E000C943E000C943E0044
S11300400C943E000C943E000C943E000C943E0034
S11300500C943E000C943E000C943E000C943E0024
S11300600C943E000C943E0011241FBECFEFD8E048
S1130070DEBFCDBF0E9457000C945C000C940000BE
S113008084B1806284B985B1806285B984B18F7787
S113009084B985B1806885B908951F9904C085B174
S11300A0806285B9089585B18F7D85B908950E94D0
S10F00B040000E944D00FDCFF894FFCFEB
S9030000FC
