:100000000C9434000C9446000C9446000C9446006A
:100010000C9446000C9446000C9446000C94460048
:100020000C9446000C9446000C9446000C94460038
:100030000C9446000C9446000C9446000C94460028
:100040000C9446000C9446000C9446000C94460018
:100050000C9446000C9446000C9446000C94460008
:100060000C9446000C94460011241FBECFEFD8E03C
:10007000DEBFCDBF21E0A0E0B1E001C01D92A23003
:10008000B207E1F70E947D000C9496000C940000EA
:1000900084B1826084B984B18D7F84B985B1826076
:1000A00085B98AB18D7F8AB98BB182608BB9089589
:1000B00020E030E01AC088B1826088B94FE382E462
:1000C0009FE0415080409040E1F700C0000088B1BF
:1000D0008D7F88B94FE382E49FE04150804090409B
:1000E000E1F700C000002F5F3F4F80910001909129
:1000F000010182179307F8F608950E944800499974
:100100000EC080910001909101019C012F5F3F4F33
:1001100030930101209300010E945800F0CF1999FB
:10012000EECF1092010110920001E9CFF894FFCFB9
:00000001FF
